S017000073657373696F6E322D6B65797061642E737265632C
S11300000C942A000C943F000C943F000C943F0085
S11300100C943F000C943F000C943F000C943F0060
S11300200C943F000C943F000C943F000C943F0050
S11300300C943F000C943F000C943F000C943F0040
S11300400C943F000C943F000C943F000C943F0030
S11300500C943F0011241FBECFE5D8E0DEBFCDBF16
S113006010E0A0E6B0E0E8E4FBE002C005900D92E9
S1130070A238B107D9F70E944E030C94A2050C9440
S1130080000040E060E083E00E94C00340E061E0E3
S113009083E00E94C00340E062E083E00E94C0036A
S11300A040E063E083E00E94C00360E083E00E94DC
S11300B0FF0461E083E00E94FF0462E083E00E94A9
S11300C0FF0463E083E00E94FF0441E064E083E016
S11300D00E94C00341E065E083E00E94C00341E068
S11300E066E083E00E94C00341E067E083E00E9491
S11300F0C00341E064E083E00E94420441E065E023
S113010083E00E94420441E066E083E00E944204EE
S113011041E067E083E00E94420408956F927F9279
S11301208F929F92AF92BF92CF92DF92EF92FF9203
S11301300F931F93CF93DF93CDB7DEB7A1970FB67D
S1130140F894DEBF0FBECDBF009709F481C05C01F7
S113015083E08D8F8E8F8F8F88A394E0998F95E0A5
S11301609A8F96E09B8F97E09C8F8D8B8E8B8F8BD5
S1130170888F198A91E09A8B92E09B8B8C8B80E11B
S1130180E0E6F0E0DE01119601900D928A95E1F728
S11301908FEFF501808300E058C0C02ED12CE9E137
S11301A0F0E0EC0FFD1FEC0DFD1D8080EDE1F0E0B3
S11301B0EC0FFD1FEC0DFD1D908040E0682D892D96
S11301C00E94420410E037C0E12EF12CE1E1F0E09E
S11301D0EC0FFD1FEE0DFF1D7080E5E1F0E0EC0F6C
S11301E0FD1FEE0DFF1D6080AE014F5D5F4F672D5B
S11301F0862D0E94C40489A181111CC007C0AE01D0
S11302004F5D5F4F672D862D0E94C40489A188230A
S1130210B1F3EE0CFF1CEE0CFF1C81E090E08C0FA0
S11302209D1FE80EF91EF701EC0DFD1D8081F501FF
S1130230808303C01F5F143038F241E0682D892D9C
S11302400E944204143020F00F5F043008F4A5CF5C
S1130250A1960FB6F894DEBF0FBECDBFDF91CF914C
S11302601F910F91FF90EF90DF90CF90BF90AF90D0
S11302709F908F907F906F900895CF93C82F80FDAB
S113028006C040E064E082E00E94420405C041E010
S113029064E082E00E944204C1FD06C040E065E0E3
S11302A082E00E94420405C041E065E082E00E94D1
S11302B04204C2FD06C040E066E082E00E944204BF
S11302C005C041E066E082E00E944204C3FD06C02E
S11302D040E067E082E00E94420405C041E067E03C
S11302E082E00E944204CF91089541E062E081E0FF
S11302F00E9442048FEC97E00197F1F700C00000E0
S113030040E062E081E00E9442048FEC97E00197B4
S1130310F1F700C000000895CF93C82F41E060E0DA
S113032081E00E94420440E061E081E00E944204D6
S11303308C2F82958F700E943D010E9475018C2F35
S11303400E943D010E947501CF910895CF93C82F5B
S113035040E060E081E00E94420440E061E081E02E
S11303600E9442048C2F82958F700E943D010E944E
S113037075018C2F0E943D010E947501CF91089553
S113038041E060E081E00E94C00341E061E081E07F
S11303900E94C00341E062E081E00E94C00341E0AA
S11303A064E082E00E94C00341E065E082E00E94D4
S11303B0C00341E066E082E00E94C00341E067E0E0
S11303C082E00E94C0032FEB8AED90E02150804030
S11303D09040E1F700C0000040E060E081E00E944E
S11303E0420440E061E081E00E94420482E00E9415
S11303F03D010E94750188E20E94A60128E72A9522
S1130400F1F78FE00E94A60188E78A95F1F781E071
S11304100E94A6018FE99FE00197F1F700C0000058
S113042086E00E94A60108950F931F93CF9300972F
S113043029F40CC00E948C01CF5F02C08C01C0E083
S1130440F801EC0FF11D80818111F4CFCF911F9140
S11304500F91089581E00E94A6018FE99FE0019722
S1130460F1F700C0000008958F929F92AF92BF925F
S1130470CF92DF92EF92FF926B017C01992354F4A7
S1130480F094E094D094C094C11CD11CE11CF11CE4
S113049081E001C080E0C114D104E104F10421F43D
S11304A080E30E948C014AC0882319F08DE20E94E7
S11304B08C0161E070E080E090E024C0DC01CB01BD
S11304C0880F991FAA1FBB1F4C015D01880C991C42
S11304D0AA1CBB1C880C991CAA1CBB1C880E991E48
S11304E0AA1EBB1EC701B6012AE030E040E050E07E
S11304F00E946905680D791D8A1D9B1DC22ED32E8D
S1130500E42EF52EC114D104E104F104B9F62AE075
S113051030E040E050E00E944705C22ED32EE42E86
S1130520F52E80E3860F0E948C016C2D7D2D8E2D7F
S11305309F2D613071058105910549F7FF90EF907A
S1130540DF90CF90BF90AF909F908F9008958823B5
S113055019F0813049F0089580E8860F0E94A601C1
S113056088E78A95F1F7089580EC860F0E94A6012A
S113057088E78A95F1F708954F925F926F927F9280
S11305808F929F92BF92CF92DF92EF92FF921F932E
S1130590CF93DF93EC014B0188818D3219F02BE26C
S11305A0B12C03C02DE2BB24B394412C512C320155
S11305B05BC0D701C601880F991FAA1FBB1F6C011E
S11305C07D01CC0CDD1CEE1CFF1CCC0CDD1CEE1CD8
S11305D0FF1C8C0D9D1DAE1DBF1D412F50E06A01F7
S11305E030E3C31AD1080D2C000CEE08FF08C80E26
S11305F0D91EEA1EFB1EB39403C0C12CD12C760174
S1130600FE01EB0DF11D108180ED810F8A3088F21F
S11306102B32F9F018F42A3299F024C02D32F1F07B
S11306202F3201F5C114D104E104F104D9F0C3015E
S1130630B201A70196010E94690529013A0112C07D
S1130640A3019201C701B6010E9437052B013C01A9
S113065009C04C0C5D1C6E1C7F1C04C04C185D084A
S11306606E087F08B394212FFE01EB0DF11D8081EC
S11306708111C3CFF4014082518262827382DF917F
S1130680CF911F91FF90EF90DF90CF90BF909F90FC
S11306908F907F906F905F904F900895CF93DF93EA
S11306A0CDB7DEB766970FB6F894DEBF0FBECDBFE9
S11306B00E9441000E94C0018FE59AEE0197F1F774
S11306C000C000008FEF89831B8A1C8A1D8A1E8A42
S11306D010E0CE0101960E948E008981833629F0B4
S11306E08F3FB9F38D3371F50FC00E942A02FE01CA
S11306F0329681E1DF011D928A95E9F71B8A1C8AF3
S11307001D8A1E8A10E0E5CFBE016D5E7F4FCE01CB
S113071002960E94BC0260E081E00E94A70280E78A
S113072090E00E94140260E081E00E94A7026B89BD
S11307307C898D899E890E9434021B8A1C8A1D8AA9
S11307401E8AC7CF113128F6212F30E0E2E0F0E015
S1130750EC0FFD1FE20FF31F80832F5F3F4FE2E09A
S1130760F0E0EC0FFD1FE20FF31F10821F5F60E04B
S113077080E00E94A702CE0102960E941402A9CF33
S1130780843008F07EC0683008F07BC0423008F046
S113079078C0813019F130F08230E1F1833009F40E
S11307A055C00895442319F0413069F008952AB3DF
S11307B081E090E002C0880F991F6A95E2F7809566
S11307C082238ABB08952AB381E090E002C0880F97
S11307D0991F6A95E2F7822B8ABB0895442319F086
S11307E0413069F0089527B381E090E002C0880F9A
S11307F0991F6A95E2F78095822387BB089527B3F2
S113080081E090E002C0880F991F6A95E2F7822B7D
S113081087BB0895442319F0413069F0089524B347
S113082081E090E002C0880F991F6A95E2F78095F5
S1130830822384BB089524B381E090E002C0880F32
S1130840991F6A95E2F7822B84BB0895442319F01B
S1130850413069F0089521B381E090E002C0880F2F
S1130860991F6A95E2F78095822381BB089521B38D
S113087081E090E002C0880F991F6A95E2F7822B0D
S113088081BB0895843008F07EC0683008F07BC0D6
S1130890423008F078C0813019F130F08230E1F153
S11308A0833009F455C00895442319F0413069F0A8
S11308B008952BB381E090E002C0880F991F6A95D8
S11308C0E2F7809582238BBB08952BB381E090E0FF
S11308D002C0880F991F6A95E2F7822B8BBB08959B
S11308E0442319F0413069F0089528B381E090E081
S11308F002C0880F991F6A95E2F78095822388BB0E
S1130900089528B381E090E002C0880F991F6A958A
S1130910E2F7822B88BB0895442319F0413069F033
S1130920089525B381E090E002C0880F991F6A956D
S1130930E2F78095822385BB089525B381E090E09A
S113094002C0880F991F6A95E2F7822B85BB089530
S1130950442319F0413069F0089522B381E090E016
S113096002C0880F991F6A95E2F78095822382BBA3
S1130970089522B381E090E002C0880F991F6A9520
S1130980E2F7822B82BB08958430C0F56830B0F55D
S11309904115510599F1813089F028F08230C9F070
S11309A0833011F1089589B390E002C0959587953D
S11309B06A95E2F78170FA018083089586B390E026
S11309C002C0959587956A95E2F78170FA01808354
S11309D0089583B390E002C0959587956A95E2F7F0
S11309E08170FA018083089580B390E002C09595E8
S11309F087956A95E2F78170FA01808308958430BF
S1130A00A8F5683098F5813089F028F08230C9F073
S1130A10833011F108952BB381E090E002C0880F78
S1130A20991F6A95E2F7822B8BBB089528B381E066
S1130A3090E002C0880F991F6A95E2F7822B88BB69
S1130A40089525B381E090E002C0880F991F6A954C
S1130A50E2F7822B85BB089522B381E090E002C0C7
S1130A60880F991F6A95E2F7822B82BB0895DB01F8
S1130A708F939F930E948805BF91AF91A29F800D91
S1130A80911DA39F900DB29F900D11240895A1E292
S1130A901A2EAA1BBB1BFD010DC0AA1FBB1FEE1FF4
S1130AA0FF1FA217B307E407F50720F0A21BB30B3F
S1130AB0E40BF50B661F771F881F991F1A9469F7BB
S1130AC060957095809590959B01AC01BD01CF0117
S1130AD00895052E97FB1EF400940E94800557FD8F
S1130AE007D00E94470507FC03D04EF40C94800500
S1130AF050954095309521953F4F4F4F5F4F089546
S1130B0090958095709561957F4F8F4F9F4F089575
S1130B100E949305A59F900DB49F900DA49F800DF6
S1130B20911D11240895A29FB001B39FC001A39FFA
S1130B30700D811D1124911DB29F700D811D112412
S10B0B40911D0895F894FFCF04
S1130B483132332F3435362A3738392D63303D2B3B
S1130B582020202020202020202020202020202089
S1050B68000087
S9030000FC
